{
	"contracts/MyContract.sol": {
		"MyContract": {
			"abi": [
				{
					"inputs": [
						{
							"internalType": "address",
							"name": "_address",
							"type": "address"
						}
					],
					"stateMutability": "nonpayable",
					"type": "constructor"
				},
				{
					"inputs": [],
					"name": "decrement",
					"outputs": [],
					"stateMutability": "nonpayable",
					"type": "function"
				},
				{
					"inputs": [],
					"name": "getBalance",
					"outputs": [
						{
							"internalType": "uint256",
							"name": "",
							"type": "uint256"
						}
					],
					"stateMutability": "view",
					"type": "function"
				},
				{
					"inputs": [],
					"name": "myAddress",
					"outputs": [
						{
							"internalType": "address",
							"name": "",
							"type": "address"
						}
					],
					"stateMutability": "view",
					"type": "function"
				},
				{
					"inputs": [],
					"name": "number",
					"outputs": [
						{
							"internalType": "uint8",
							"name": "",
							"type": "uint8"
						}
					],
					"stateMutability": "view",
					"type": "function"
				},
				{
					"inputs": [],
					"name": "ourString",
					"outputs": [
						{
							"internalType": "string",
							"name": "",
							"type": "string"
						}
					],
					"stateMutability": "view",
					"type": "function"
				},
				{
					"inputs": [
						{
							"internalType": "address",
							"name": "_addressInput",
							"type": "address"
						}
					],
					"name": "setAddress",
					"outputs": [],
					"stateMutability": "nonpayable",
					"type": "function"
				},
				{
					"inputs": [
						{
							"internalType": "string",
							"name": "_updateString",
							"type": "string"
						}
					],
					"name": "updateString",
					"outputs": [],
					"stateMutability": "nonpayable",
					"type": "function"
				}
			],
			"devdoc": {
				"kind": "dev",
				"methods": {},
				"version": 1
			},
			"evm": {
				"assembly": "    /* \"contracts/MyContract.sol\":57:626  contract MyContract {... */\n  mstore(0x40, 0x80)\n    /* \"contracts/MyContract.sol\":83:126  string public ourString = \"Hello Word Hiii\" */\n  mload(0x40)\n  dup1\n  0x40\n  add\n  0x40\n  mstore\n  dup1\n  0x0f\n  dup2\n  mstore\n  0x20\n  add\n  0x48656c6c6f20576f726420486969690000000000000000000000000000000000\n  dup2\n  mstore\n  pop\n  0x00\n  swap1\n  dup1\n  mload\n  swap1\n  0x20\n  add\n  swap1\n  tag_1\n  swap3\n  swap2\n  swap1\n  tag_2\n  jump\t// in\ntag_1:\n  pop\n    /* \"contracts/MyContract.sol\":563:564  0 */\n  0x00\n    /* \"contracts/MyContract.sol\":541:564  uint8 public number = 0 */\n  0x01\n  exp(0x0100, 0x14)\n  dup2\n  sload\n  dup2\n  0xff\n  mul\n  not\n  and\n  swap1\n  dup4\n  0xff\n  and\n  mul\n  or\n  swap1\n  sstore\n  pop\n    /* \"contracts/MyContract.sol\":271:338  constructor(address _address) {... */\n  callvalue\n  dup1\n  iszero\n  tag_3\n  jumpi\n  0x00\n  dup1\n  revert\ntag_3:\n  pop\n  mload(0x40)\n  sub(codesize, bytecodeSize)\n  dup1\n  bytecodeSize\n  dup4\n  codecopy\n  dup2\n  dup2\n  add\n  0x40\n  mstore\n  dup2\n  add\n  swap1\n  tag_4\n  swap2\n  swap1\n  tag_5\n  jump\t// in\ntag_4:\n    /* \"contracts/MyContract.sol\":323:331  _address */\n  dup1\n    /* \"contracts/MyContract.sol\":311:320  myAddress */\n  0x01\n  0x00\n    /* \"contracts/MyContract.sol\":311:331  myAddress = _address */\n  0x0100\n  exp\n  dup2\n  sload\n  dup2\n  0xffffffffffffffffffffffffffffffffffffffff\n  mul\n  not\n  and\n  swap1\n  dup4\n  0xffffffffffffffffffffffffffffffffffffffff\n  and\n  mul\n  or\n  swap1\n  sstore\n  pop\n    /* \"contracts/MyContract.sol\":271:338  constructor(address _address) {... */\n  pop\n    /* \"contracts/MyContract.sol\":57:626  contract MyContract {... */\n  jump(tag_8)\ntag_2:\n  dup3\n  dup1\n  sload\n  tag_9\n  swap1\n  tag_10\n  jump\t// in\ntag_9:\n  swap1\n  0x00\n  mstore\n  keccak256(0x00, 0x20)\n  swap1\n  0x1f\n  add\n  0x20\n  swap1\n  div\n  dup2\n  add\n  swap3\n  dup3\n  tag_12\n  jumpi\n  0x00\n  dup6\n  sstore\n  jump(tag_11)\ntag_12:\n  dup3\n  0x1f\n  lt\n  tag_13\n  jumpi\n  dup1\n  mload\n  not(0xff)\n  and\n  dup4\n  dup1\n  add\n  or\n  dup6\n  sstore\n  jump(tag_11)\ntag_13:\n  dup3\n  dup1\n  add\n  0x01\n  add\n  dup6\n  sstore\n  dup3\n  iszero\n  tag_11\n  jumpi\n  swap2\n  dup3\n  add\ntag_14:\n  dup3\n  dup2\n  gt\n  iszero\n  tag_15\n  jumpi\n  dup3\n  mload\n  dup3\n  sstore\n  swap2\n  0x20\n  add\n  swap2\n  swap1\n  0x01\n  add\n  swap1\n  jump(tag_14)\ntag_15:\ntag_11:\n  pop\n  swap1\n  pop\n  tag_16\n  swap2\n  swap1\n  tag_17\n  jump\t// in\ntag_16:\n  pop\n  swap1\n  jump\t// out\ntag_17:\ntag_18:\n  dup1\n  dup3\n  gt\n  iszero\n  tag_19\n  jumpi\n  0x00\n  dup2\n  0x00\n  swap1\n  sstore\n  pop\n  0x01\n  add\n  jump(tag_18)\ntag_19:\n  pop\n  swap1\n  jump\t// out\n    /* \"#utility.yul\":88:205   */\ntag_21:\n    /* \"#utility.yul\":197:198   */\n  0x00\n    /* \"#utility.yul\":194:195   */\n  dup1\n    /* \"#utility.yul\":187:199   */\n  revert\n    /* \"#utility.yul\":334:460   */\ntag_23:\n    /* \"#utility.yul\":371:378   */\n  0x00\n    /* \"#utility.yul\":411:453   */\n  0xffffffffffffffffffffffffffffffffffffffff\n    /* \"#utility.yul\":404:409   */\n  dup3\n    /* \"#utility.yul\":400:454   */\n  and\n    /* \"#utility.yul\":389:454   */\n  swap1\n  pop\n    /* \"#utility.yul\":334:460   */\n  swap2\n  swap1\n  pop\n  jump\t// out\n    /* \"#utility.yul\":466:562   */\ntag_24:\n    /* \"#utility.yul\":503:510   */\n  0x00\n    /* \"#utility.yul\":532:556   */\n  tag_34\n    /* \"#utility.yul\":550:555   */\n  dup3\n    /* \"#utility.yul\":532:556   */\n  tag_23\n  jump\t// in\ntag_34:\n    /* \"#utility.yul\":521:556   */\n  swap1\n  pop\n    /* \"#utility.yul\":466:562   */\n  swap2\n  swap1\n  pop\n  jump\t// out\n    /* \"#utility.yul\":568:690   */\ntag_25:\n    /* \"#utility.yul\":641:665   */\n  tag_36\n    /* \"#utility.yul\":659:664   */\n  dup2\n    /* \"#utility.yul\":641:665   */\n  tag_24\n  jump\t// in\ntag_36:\n    /* \"#utility.yul\":634:639   */\n  dup2\n    /* \"#utility.yul\":631:666   */\n  eq\n    /* \"#utility.yul\":621:684   */\n  tag_37\n  jumpi\n    /* \"#utility.yul\":680:681   */\n  0x00\n    /* \"#utility.yul\":677:678   */\n  dup1\n    /* \"#utility.yul\":670:682   */\n  revert\n    /* \"#utility.yul\":621:684   */\ntag_37:\n    /* \"#utility.yul\":568:690   */\n  pop\n  jump\t// out\n    /* \"#utility.yul\":696:839   */\ntag_26:\n    /* \"#utility.yul\":753:758   */\n  0x00\n    /* \"#utility.yul\":784:790   */\n  dup2\n    /* \"#utility.yul\":778:791   */\n  mload\n    /* \"#utility.yul\":769:791   */\n  swap1\n  pop\n    /* \"#utility.yul\":800:833   */\n  tag_39\n    /* \"#utility.yul\":827:832   */\n  dup2\n    /* \"#utility.yul\":800:833   */\n  tag_25\n  jump\t// in\ntag_39:\n    /* \"#utility.yul\":696:839   */\n  swap3\n  swap2\n  pop\n  pop\n  jump\t// out\n    /* \"#utility.yul\":845:1196   */\ntag_5:\n    /* \"#utility.yul\":915:921   */\n  0x00\n    /* \"#utility.yul\":964:966   */\n  0x20\n    /* \"#utility.yul\":952:961   */\n  dup3\n    /* \"#utility.yul\":943:950   */\n  dup5\n    /* \"#utility.yul\":939:962   */\n  sub\n    /* \"#utility.yul\":935:967   */\n  slt\n    /* \"#utility.yul\":932:1051   */\n  iszero\n  tag_41\n  jumpi\n    /* \"#utility.yul\":970:1049   */\n  tag_42\n  tag_21\n  jump\t// in\ntag_42:\n    /* \"#utility.yul\":932:1051   */\ntag_41:\n    /* \"#utility.yul\":1090:1091   */\n  0x00\n    /* \"#utility.yul\":1115:1179   */\n  tag_43\n    /* \"#utility.yul\":1171:1178   */\n  dup5\n    /* \"#utility.yul\":1162:1168   */\n  dup3\n    /* \"#utility.yul\":1151:1160   */\n  dup6\n    /* \"#utility.yul\":1147:1169   */\n  add\n    /* \"#utility.yul\":1115:1179   */\n  tag_26\n  jump\t// in\ntag_43:\n    /* \"#utility.yul\":1105:1179   */\n  swap2\n  pop\n    /* \"#utility.yul\":1061:1189   */\n  pop\n    /* \"#utility.yul\":845:1196   */\n  swap3\n  swap2\n  pop\n  pop\n  jump\t// out\n    /* \"#utility.yul\":1202:1382   */\ntag_27:\n    /* \"#utility.yul\":1250:1327   */\n  0x4e487b7100000000000000000000000000000000000000000000000000000000\n    /* \"#utility.yul\":1247:1248   */\n  0x00\n    /* \"#utility.yul\":1240:1328   */\n  mstore\n    /* \"#utility.yul\":1347:1351   */\n  0x22\n    /* \"#utility.yul\":1344:1345   */\n  0x04\n    /* \"#utility.yul\":1337:1352   */\n  mstore\n    /* \"#utility.yul\":1371:1375   */\n  0x24\n    /* \"#utility.yul\":1368:1369   */\n  0x00\n    /* \"#utility.yul\":1361:1376   */\n  revert\n    /* \"#utility.yul\":1388:1708   */\ntag_10:\n    /* \"#utility.yul\":1432:1438   */\n  0x00\n    /* \"#utility.yul\":1469:1470   */\n  0x02\n    /* \"#utility.yul\":1463:1467   */\n  dup3\n    /* \"#utility.yul\":1459:1471   */\n  div\n    /* \"#utility.yul\":1449:1471   */\n  swap1\n  pop\n    /* \"#utility.yul\":1516:1517   */\n  0x01\n    /* \"#utility.yul\":1510:1514   */\n  dup3\n    /* \"#utility.yul\":1506:1518   */\n  and\n    /* \"#utility.yul\":1537:1555   */\n  dup1\n    /* \"#utility.yul\":1527:1608   */\n  tag_46\n  jumpi\n    /* \"#utility.yul\":1593:1597   */\n  0x7f\n    /* \"#utility.yul\":1585:1591   */\n  dup3\n    /* \"#utility.yul\":1581:1598   */\n  and\n    /* \"#utility.yul\":1571:1598   */\n  swap2\n  pop\n    /* \"#utility.yul\":1527:1608   */\ntag_46:\n    /* \"#utility.yul\":1655:1657   */\n  0x20\n    /* \"#utility.yul\":1647:1653   */\n  dup3\n    /* \"#utility.yul\":1644:1658   */\n  lt\n    /* \"#utility.yul\":1624:1642   */\n  dup2\n    /* \"#utility.yul\":1621:1659   */\n  sub\n    /* \"#utility.yul\":1618:1702   */\n  tag_47\n  jumpi\n    /* \"#utility.yul\":1674:1692   */\n  tag_48\n  tag_27\n  jump\t// in\ntag_48:\n    /* \"#utility.yul\":1618:1702   */\ntag_47:\n    /* \"#utility.yul\":1439:1708   */\n  pop\n    /* \"#utility.yul\":1388:1708   */\n  swap2\n  swap1\n  pop\n  jump\t// out\n    /* \"contracts/MyContract.sol\":57:626  contract MyContract {... */\ntag_8:\n  dataSize(sub_0)\n  dup1\n  dataOffset(sub_0)\n  0x00\n  codecopy\n  0x00\n  return\nstop\n\nsub_0: assembly {\n        /* \"contracts/MyContract.sol\":57:626  contract MyContract {... */\n      mstore(0x40, 0x80)\n      callvalue\n      dup1\n      iszero\n      tag_1\n      jumpi\n      0x00\n      dup1\n      revert\n    tag_1:\n      pop\n      jumpi(tag_2, lt(calldatasize, 0x04))\n      shr(0xe0, calldataload(0x00))\n      dup1\n      0x390a0099\n      gt\n      tag_10\n      jumpi\n      dup1\n      0x390a0099\n      eq\n      tag_6\n      jumpi\n      dup1\n      0x8381f58a\n      eq\n      tag_7\n      jumpi\n      dup1\n      0xc3ccf402\n      eq\n      tag_8\n      jumpi\n      dup1\n      0xe30081a0\n      eq\n      tag_9\n      jumpi\n      jump(tag_2)\n    tag_10:\n      dup1\n      0x12065fe0\n      eq\n      tag_3\n      jumpi\n      dup1\n      0x26b85ee1\n      eq\n      tag_4\n      jumpi\n      dup1\n      0x2baeceb7\n      eq\n      tag_5\n      jumpi\n    tag_2:\n      0x00\n      dup1\n      revert\n        /* \"contracts/MyContract.sol\":442:535  function getBalance() public view returns (uint256) {... */\n    tag_3:\n      tag_11\n      tag_12\n      jump\t// in\n    tag_11:\n      mload(0x40)\n      tag_13\n      swap2\n      swap1\n      tag_14\n      jump\t// in\n    tag_13:\n      mload(0x40)\n      dup1\n      swap2\n      sub\n      swap1\n      return\n        /* \"contracts/MyContract.sol\":240:264  address public myAddress */\n    tag_4:\n      tag_15\n      tag_16\n      jump\t// in\n    tag_15:\n      mload(0x40)\n      tag_17\n      swap2\n      swap1\n      tag_18\n      jump\t// in\n    tag_17:\n      mload(0x40)\n      dup1\n      swap2\n      sub\n      swap1\n      return\n        /* \"contracts/MyContract.sol\":571:624  function decrement() public {... */\n    tag_5:\n      tag_19\n      tag_20\n      jump\t// in\n    tag_19:\n      stop\n        /* \"contracts/MyContract.sol\":83:126  string public ourString = \"Hello Word Hiii\" */\n    tag_6:\n      tag_21\n      tag_22\n      jump\t// in\n    tag_21:\n      mload(0x40)\n      tag_23\n      swap2\n      swap1\n      tag_24\n      jump\t// in\n    tag_23:\n      mload(0x40)\n      dup1\n      swap2\n      sub\n      swap1\n      return\n        /* \"contracts/MyContract.sol\":541:564  uint8 public number = 0 */\n    tag_7:\n      tag_25\n      tag_26\n      jump\t// in\n    tag_25:\n      mload(0x40)\n      tag_27\n      swap2\n      swap1\n      tag_28\n      jump\t// in\n    tag_27:\n      mload(0x40)\n      dup1\n      swap2\n      sub\n      swap1\n      return\n        /* \"contracts/MyContract.sol\":134:234  function updateString(string memory _updateString) public {... */\n    tag_8:\n      tag_29\n      0x04\n      dup1\n      calldatasize\n      sub\n      dup2\n      add\n      swap1\n      tag_30\n      swap2\n      swap1\n      tag_31\n      jump\t// in\n    tag_30:\n      tag_32\n      jump\t// in\n    tag_29:\n      stop\n        /* \"contracts/MyContract.sol\":344:436  function setAddress(address _addressInput) public {... */\n    tag_9:\n      tag_33\n      0x04\n      dup1\n      calldatasize\n      sub\n      dup2\n      add\n      swap1\n      tag_34\n      swap2\n      swap1\n      tag_35\n      jump\t// in\n    tag_34:\n      tag_36\n      jump\t// in\n    tag_33:\n      stop\n        /* \"contracts/MyContract.sol\":442:535  function getBalance() public view returns (uint256) {... */\n    tag_12:\n        /* \"contracts/MyContract.sol\":485:492  uint256 */\n      0x00\n        /* \"contracts/MyContract.sol\":511:520  myAddress */\n      0x01\n      0x00\n      swap1\n      sload\n      swap1\n      0x0100\n      exp\n      swap1\n      div\n      0xffffffffffffffffffffffffffffffffffffffff\n      and\n        /* \"contracts/MyContract.sol\":511:528  myAddress.balance */\n      0xffffffffffffffffffffffffffffffffffffffff\n      and\n      balance\n        /* \"contracts/MyContract.sol\":504:528  return myAddress.balance */\n      swap1\n      pop\n        /* \"contracts/MyContract.sol\":442:535  function getBalance() public view returns (uint256) {... */\n      swap1\n      jump\t// out\n        /* \"contracts/MyContract.sol\":240:264  address public myAddress */\n    tag_16:\n      0x01\n      0x00\n      swap1\n      sload\n      swap1\n      0x0100\n      exp\n      swap1\n      div\n      0xffffffffffffffffffffffffffffffffffffffff\n      and\n      dup2\n      jump\t// out\n        /* \"contracts/MyContract.sol\":571:624  function decrement() public {... */\n    tag_20:\n        /* \"contracts/MyContract.sol\":609:615  number */\n      0x01\n      0x14\n        /* \"contracts/MyContract.sol\":609:617  number-- */\n      dup2\n      dup2\n      swap1\n      sload\n      swap1\n      0x0100\n      exp\n      swap1\n      div\n      0xff\n      and\n      dup1\n      swap3\n      swap2\n      swap1\n      tag_39\n      swap1\n      tag_40\n      jump\t// in\n    tag_39:\n      swap2\n      swap1\n      0x0100\n      exp\n      dup2\n      sload\n      dup2\n      0xff\n      mul\n      not\n      and\n      swap1\n      dup4\n      0xff\n      and\n      mul\n      or\n      swap1\n      sstore\n      pop\n      pop\n        /* \"contracts/MyContract.sol\":571:624  function decrement() public {... */\n      jump\t// out\n        /* \"contracts/MyContract.sol\":83:126  string public ourString = \"Hello Word Hiii\" */\n    tag_22:\n      0x00\n      dup1\n      sload\n      tag_41\n      swap1\n      tag_42\n      jump\t// in\n    tag_41:\n      dup1\n      0x1f\n      add\n      0x20\n      dup1\n      swap2\n      div\n      mul\n      0x20\n      add\n      mload(0x40)\n      swap1\n      dup2\n      add\n      0x40\n      mstore\n      dup1\n      swap3\n      swap2\n      swap1\n      dup2\n      dup2\n      mstore\n      0x20\n      add\n      dup3\n      dup1\n      sload\n      tag_43\n      swap1\n      tag_42\n      jump\t// in\n    tag_43:\n      dup1\n      iszero\n      tag_44\n      jumpi\n      dup1\n      0x1f\n      lt\n      tag_45\n      jumpi\n      0x0100\n      dup1\n      dup4\n      sload\n      div\n      mul\n      dup4\n      mstore\n      swap2\n      0x20\n      add\n      swap2\n      jump(tag_44)\n    tag_45:\n      dup3\n      add\n      swap2\n      swap1\n      0x00\n      mstore\n      keccak256(0x00, 0x20)\n      swap1\n    tag_46:\n      dup2\n      sload\n      dup2\n      mstore\n      swap1\n      0x01\n      add\n      swap1\n      0x20\n      add\n      dup1\n      dup4\n      gt\n      tag_46\n      jumpi\n      dup3\n      swap1\n      sub\n      0x1f\n      and\n      dup3\n      add\n      swap2\n    tag_44:\n      pop\n      pop\n      pop\n      pop\n      pop\n      dup2\n      jump\t// out\n        /* \"contracts/MyContract.sol\":541:564  uint8 public number = 0 */\n    tag_26:\n      0x01\n      0x14\n      swap1\n      sload\n      swap1\n      0x0100\n      exp\n      swap1\n      div\n      0xff\n      and\n      dup2\n      jump\t// out\n        /* \"contracts/MyContract.sol\":134:234  function updateString(string memory _updateString) public {... */\n    tag_32:\n        /* \"contracts/MyContract.sol\":214:227  _updateString */\n      dup1\n        /* \"contracts/MyContract.sol\":202:211  ourString */\n      0x00\n        /* \"contracts/MyContract.sol\":202:227  ourString = _updateString */\n      swap1\n      dup1\n      mload\n      swap1\n      0x20\n      add\n      swap1\n      tag_48\n      swap3\n      swap2\n      swap1\n      tag_49\n      jump\t// in\n    tag_48:\n      pop\n        /* \"contracts/MyContract.sol\":134:234  function updateString(string memory _updateString) public {... */\n      pop\n      jump\t// out\n        /* \"contracts/MyContract.sol\":344:436  function setAddress(address _addressInput) public {... */\n    tag_36:\n        /* \"contracts/MyContract.sol\":416:429  _addressInput */\n      dup1\n        /* \"contracts/MyContract.sol\":404:413  myAddress */\n      0x01\n      0x00\n        /* \"contracts/MyContract.sol\":404:429  myAddress = _addressInput */\n      0x0100\n      exp\n      dup2\n      sload\n      dup2\n      0xffffffffffffffffffffffffffffffffffffffff\n      mul\n      not\n      and\n      swap1\n      dup4\n      0xffffffffffffffffffffffffffffffffffffffff\n      and\n      mul\n      or\n      swap1\n      sstore\n      pop\n        /* \"contracts/MyContract.sol\":344:436  function setAddress(address _addressInput) public {... */\n      pop\n      jump\t// out\n    tag_49:\n      dup3\n      dup1\n      sload\n      tag_51\n      swap1\n      tag_42\n      jump\t// in\n    tag_51:\n      swap1\n      0x00\n      mstore\n      keccak256(0x00, 0x20)\n      swap1\n      0x1f\n      add\n      0x20\n      swap1\n      div\n      dup2\n      add\n      swap3\n      dup3\n      tag_53\n      jumpi\n      0x00\n      dup6\n      sstore\n      jump(tag_52)\n    tag_53:\n      dup3\n      0x1f\n      lt\n      tag_54\n      jumpi\n      dup1\n      mload\n      not(0xff)\n      and\n      dup4\n      dup1\n      add\n      or\n      dup6\n      sstore\n      jump(tag_52)\n    tag_54:\n      dup3\n      dup1\n      add\n      0x01\n      add\n      dup6\n      sstore\n      dup3\n      iszero\n      tag_52\n      jumpi\n      swap2\n      dup3\n      add\n    tag_55:\n      dup3\n      dup2\n      gt\n      iszero\n      tag_56\n      jumpi\n      dup3\n      mload\n      dup3\n      sstore\n      swap2\n      0x20\n      add\n      swap2\n      swap1\n      0x01\n      add\n      swap1\n      jump(tag_55)\n    tag_56:\n    tag_52:\n      pop\n      swap1\n      pop\n      tag_57\n      swap2\n      swap1\n      tag_58\n      jump\t// in\n    tag_57:\n      pop\n      swap1\n      jump\t// out\n    tag_58:\n    tag_59:\n      dup1\n      dup3\n      gt\n      iszero\n      tag_60\n      jumpi\n      0x00\n      dup2\n      0x00\n      swap1\n      sstore\n      pop\n      0x01\n      add\n      jump(tag_59)\n    tag_60:\n      pop\n      swap1\n      jump\t// out\n        /* \"#utility.yul\":7:84   */\n    tag_61:\n        /* \"#utility.yul\":44:51   */\n      0x00\n        /* \"#utility.yul\":73:78   */\n      dup2\n        /* \"#utility.yul\":62:78   */\n      swap1\n      pop\n        /* \"#utility.yul\":7:84   */\n      swap2\n      swap1\n      pop\n      jump\t// out\n        /* \"#utility.yul\":90:208   */\n    tag_62:\n        /* \"#utility.yul\":177:201   */\n      tag_92\n        /* \"#utility.yul\":195:200   */\n      dup2\n        /* \"#utility.yul\":177:201   */\n      tag_61\n      jump\t// in\n    tag_92:\n        /* \"#utility.yul\":172:175   */\n      dup3\n        /* \"#utility.yul\":165:202   */\n      mstore\n        /* \"#utility.yul\":90:208   */\n      pop\n      pop\n      jump\t// out\n        /* \"#utility.yul\":214:436   */\n    tag_14:\n        /* \"#utility.yul\":307:311   */\n      0x00\n        /* \"#utility.yul\":345:347   */\n      0x20\n        /* \"#utility.yul\":334:343   */\n      dup3\n        /* \"#utility.yul\":330:348   */\n      add\n        /* \"#utility.yul\":322:348   */\n      swap1\n      pop\n        /* \"#utility.yul\":358:429   */\n      tag_94\n        /* \"#utility.yul\":426:427   */\n      0x00\n        /* \"#utility.yul\":415:424   */\n      dup4\n        /* \"#utility.yul\":411:428   */\n      add\n        /* \"#utility.yul\":402:408   */\n      dup5\n        /* \"#utility.yul\":358:429   */\n      tag_62\n      jump\t// in\n    tag_94:\n        /* \"#utility.yul\":214:436   */\n      swap3\n      swap2\n      pop\n      pop\n      jump\t// out\n        /* \"#utility.yul\":442:568   */\n    tag_63:\n        /* \"#utility.yul\":479:486   */\n      0x00\n        /* \"#utility.yul\":519:561   */\n      0xffffffffffffffffffffffffffffffffffffffff\n        /* \"#utility.yul\":512:517   */\n      dup3\n        /* \"#utility.yul\":508:562   */\n      and\n        /* \"#utility.yul\":497:562   */\n      swap1\n      pop\n        /* \"#utility.yul\":442:568   */\n      swap2\n      swap1\n      pop\n      jump\t// out\n        /* \"#utility.yul\":574:670   */\n    tag_64:\n        /* \"#utility.yul\":611:618   */\n      0x00\n        /* \"#utility.yul\":640:664   */\n      tag_97\n        /* \"#utility.yul\":658:663   */\n      dup3\n        /* \"#utility.yul\":640:664   */\n      tag_63\n      jump\t// in\n    tag_97:\n        /* \"#utility.yul\":629:664   */\n      swap1\n      pop\n        /* \"#utility.yul\":574:670   */\n      swap2\n      swap1\n      pop\n      jump\t// out\n        /* \"#utility.yul\":676:794   */\n    tag_65:\n        /* \"#utility.yul\":763:787   */\n      tag_99\n        /* \"#utility.yul\":781:786   */\n      dup2\n        /* \"#utility.yul\":763:787   */\n      tag_64\n      jump\t// in\n    tag_99:\n        /* \"#utility.yul\":758:761   */\n      dup3\n        /* \"#utility.yul\":751:788   */\n      mstore\n        /* \"#utility.yul\":676:794   */\n      pop\n      pop\n      jump\t// out\n        /* \"#utility.yul\":800:1022   */\n    tag_18:\n        /* \"#utility.yul\":893:897   */\n      0x00\n        /* \"#utility.yul\":931:933   */\n      0x20\n        /* \"#utility.yul\":920:929   */\n      dup3\n        /* \"#utility.yul\":916:934   */\n      add\n        /* \"#utility.yul\":908:934   */\n      swap1\n      pop\n        /* \"#utility.yul\":944:1015   */\n      tag_101\n        /* \"#utility.yul\":1012:1013   */\n      0x00\n        /* \"#utility.yul\":1001:1010   */\n      dup4\n        /* \"#utility.yul\":997:1014   */\n      add\n        /* \"#utility.yul\":988:994   */\n      dup5\n        /* \"#utility.yul\":944:1015   */\n      tag_65\n      jump\t// in\n    tag_101:\n        /* \"#utility.yul\":800:1022   */\n      swap3\n      swap2\n      pop\n      pop\n      jump\t// out\n        /* \"#utility.yul\":1028:1127   */\n    tag_66:\n        /* \"#utility.yul\":1080:1086   */\n      0x00\n        /* \"#utility.yul\":1114:1119   */\n      dup2\n        /* \"#utility.yul\":1108:1120   */\n      mload\n        /* \"#utility.yul\":1098:1120   */\n      swap1\n      pop\n        /* \"#utility.yul\":1028:1127   */\n      swap2\n      swap1\n      pop\n      jump\t// out\n        /* \"#utility.yul\":1133:1302   */\n    tag_67:\n        /* \"#utility.yul\":1217:1228   */\n      0x00\n        /* \"#utility.yul\":1251:1257   */\n      dup3\n        /* \"#utility.yul\":1246:1249   */\n      dup3\n        /* \"#utility.yul\":1239:1258   */\n      mstore\n        /* \"#utility.yul\":1291:1295   */\n      0x20\n        /* \"#utility.yul\":1286:1289   */\n      dup3\n        /* \"#utility.yul\":1282:1296   */\n      add\n        /* \"#utility.yul\":1267:1296   */\n      swap1\n      pop\n        /* \"#utility.yul\":1133:1302   */\n      swap3\n      swap2\n      pop\n      pop\n      jump\t// out\n        /* \"#utility.yul\":1308:1615   */\n    tag_68:\n        /* \"#utility.yul\":1376:1377   */\n      0x00\n        /* \"#utility.yul\":1386:1499   */\n    tag_105:\n        /* \"#utility.yul\":1400:1406   */\n      dup4\n        /* \"#utility.yul\":1397:1398   */\n      dup2\n        /* \"#utility.yul\":1394:1407   */\n      lt\n        /* \"#utility.yul\":1386:1499   */\n      iszero\n      tag_107\n      jumpi\n        /* \"#utility.yul\":1485:1486   */\n      dup1\n        /* \"#utility.yul\":1480:1483   */\n      dup3\n        /* \"#utility.yul\":1476:1487   */\n      add\n        /* \"#utility.yul\":1470:1488   */\n      mload\n        /* \"#utility.yul\":1466:1467   */\n      dup2\n        /* \"#utility.yul\":1461:1464   */\n      dup5\n        /* \"#utility.yul\":1457:1468   */\n      add\n        /* \"#utility.yul\":1450:1489   */\n      mstore\n        /* \"#utility.yul\":1422:1424   */\n      0x20\n        /* \"#utility.yul\":1419:1420   */\n      dup2\n        /* \"#utility.yul\":1415:1425   */\n      add\n        /* \"#utility.yul\":1410:1425   */\n      swap1\n      pop\n        /* \"#utility.yul\":1386:1499   */\n      jump(tag_105)\n    tag_107:\n        /* \"#utility.yul\":1517:1523   */\n      dup4\n        /* \"#utility.yul\":1514:1515   */\n      dup2\n        /* \"#utility.yul\":1511:1524   */\n      gt\n        /* \"#utility.yul\":1508:1609   */\n      iszero\n      tag_108\n      jumpi\n        /* \"#utility.yul\":1597:1598   */\n      0x00\n        /* \"#utility.yul\":1588:1594   */\n      dup5\n        /* \"#utility.yul\":1583:1586   */\n      dup5\n        /* \"#utility.yul\":1579:1595   */\n      add\n        /* \"#utility.yul\":1572:1599   */\n      mstore\n        /* \"#utility.yul\":1508:1609   */\n    tag_108:\n        /* \"#utility.yul\":1357:1615   */\n      pop\n        /* \"#utility.yul\":1308:1615   */\n      pop\n      pop\n      pop\n      jump\t// out\n        /* \"#utility.yul\":1621:1723   */\n    tag_69:\n        /* \"#utility.yul\":1662:1668   */\n      0x00\n        /* \"#utility.yul\":1713:1715   */\n      0x1f\n        /* \"#utility.yul\":1709:1716   */\n      not\n        /* \"#utility.yul\":1704:1706   */\n      0x1f\n        /* \"#utility.yul\":1697:1702   */\n      dup4\n        /* \"#utility.yul\":1693:1707   */\n      add\n        /* \"#utility.yul\":1689:1717   */\n      and\n        /* \"#utility.yul\":1679:1717   */\n      swap1\n      pop\n        /* \"#utility.yul\":1621:1723   */\n      swap2\n      swap1\n      pop\n      jump\t// out\n        /* \"#utility.yul\":1729:2093   */\n    tag_70:\n        /* \"#utility.yul\":1817:1820   */\n      0x00\n        /* \"#utility.yul\":1845:1884   */\n      tag_111\n        /* \"#utility.yul\":1878:1883   */\n      dup3\n        /* \"#utility.yul\":1845:1884   */\n      tag_66\n      jump\t// in\n    tag_111:\n        /* \"#utility.yul\":1900:1971   */\n      tag_112\n        /* \"#utility.yul\":1964:1970   */\n      dup2\n        /* \"#utility.yul\":1959:1962   */\n      dup6\n        /* \"#utility.yul\":1900:1971   */\n      tag_67\n      jump\t// in\n    tag_112:\n        /* \"#utility.yul\":1893:1971   */\n      swap4\n      pop\n        /* \"#utility.yul\":1980:2032   */\n      tag_113\n        /* \"#utility.yul\":2025:2031   */\n      dup2\n        /* \"#utility.yul\":2020:2023   */\n      dup6\n        /* \"#utility.yul\":2013:2017   */\n      0x20\n        /* \"#utility.yul\":2006:2011   */\n      dup7\n        /* \"#utility.yul\":2002:2018   */\n      add\n        /* \"#utility.yul\":1980:2032   */\n      tag_68\n      jump\t// in\n    tag_113:\n        /* \"#utility.yul\":2057:2086   */\n      tag_114\n        /* \"#utility.yul\":2079:2085   */\n      dup2\n        /* \"#utility.yul\":2057:2086   */\n      tag_69\n      jump\t// in\n    tag_114:\n        /* \"#utility.yul\":2052:2055   */\n      dup5\n        /* \"#utility.yul\":2048:2087   */\n      add\n        /* \"#utility.yul\":2041:2087   */\n      swap2\n      pop\n        /* \"#utility.yul\":1821:2093   */\n      pop\n        /* \"#utility.yul\":1729:2093   */\n      swap3\n      swap2\n      pop\n      pop\n      jump\t// out\n        /* \"#utility.yul\":2099:2412   */\n    tag_24:\n        /* \"#utility.yul\":2212:2216   */\n      0x00\n        /* \"#utility.yul\":2250:2252   */\n      0x20\n        /* \"#utility.yul\":2239:2248   */\n      dup3\n        /* \"#utility.yul\":2235:2253   */\n      add\n        /* \"#utility.yul\":2227:2253   */\n      swap1\n      pop\n        /* \"#utility.yul\":2299:2308   */\n      dup2\n        /* \"#utility.yul\":2293:2297   */\n      dup2\n        /* \"#utility.yul\":2289:2309   */\n      sub\n        /* \"#utility.yul\":2285:2286   */\n      0x00\n        /* \"#utility.yul\":2274:2283   */\n      dup4\n        /* \"#utility.yul\":2270:2287   */\n      add\n        /* \"#utility.yul\":2263:2310   */\n      mstore\n        /* \"#utility.yul\":2327:2405   */\n      tag_116\n        /* \"#utility.yul\":2400:2404   */\n      dup2\n        /* \"#utility.yul\":2391:2397   */\n      dup5\n        /* \"#utility.yul\":2327:2405   */\n      tag_70\n      jump\t// in\n    tag_116:\n        /* \"#utility.yul\":2319:2405   */\n      swap1\n      pop\n        /* \"#utility.yul\":2099:2412   */\n      swap3\n      swap2\n      pop\n      pop\n      jump\t// out\n        /* \"#utility.yul\":2418:2504   */\n    tag_71:\n        /* \"#utility.yul\":2453:2460   */\n      0x00\n        /* \"#utility.yul\":2493:2497   */\n      0xff\n        /* \"#utility.yul\":2486:2491   */\n      dup3\n        /* \"#utility.yul\":2482:2498   */\n      and\n        /* \"#utility.yul\":2471:2498   */\n      swap1\n      pop\n        /* \"#utility.yul\":2418:2504   */\n      swap2\n      swap1\n      pop\n      jump\t// out\n        /* \"#utility.yul\":2510:2622   */\n    tag_72:\n        /* \"#utility.yul\":2593:2615   */\n      tag_119\n        /* \"#utility.yul\":2609:2614   */\n      dup2\n        /* \"#utility.yul\":2593:2615   */\n      tag_71\n      jump\t// in\n    tag_119:\n        /* \"#utility.yul\":2588:2591   */\n      dup3\n        /* \"#utility.yul\":2581:2616   */\n      mstore\n        /* \"#utility.yul\":2510:2622   */\n      pop\n      pop\n      jump\t// out\n        /* \"#utility.yul\":2628:2842   */\n    tag_28:\n        /* \"#utility.yul\":2717:2721   */\n      0x00\n        /* \"#utility.yul\":2755:2757   */\n      0x20\n        /* \"#utility.yul\":2744:2753   */\n      dup3\n        /* \"#utility.yul\":2740:2758   */\n      add\n        /* \"#utility.yul\":2732:2758   */\n      swap1\n      pop\n        /* \"#utility.yul\":2768:2835   */\n      tag_121\n        /* \"#utility.yul\":2832:2833   */\n      0x00\n        /* \"#utility.yul\":2821:2830   */\n      dup4\n        /* \"#utility.yul\":2817:2834   */\n      add\n        /* \"#utility.yul\":2808:2814   */\n      dup5\n        /* \"#utility.yul\":2768:2835   */\n      tag_72\n      jump\t// in\n    tag_121:\n        /* \"#utility.yul\":2628:2842   */\n      swap3\n      swap2\n      pop\n      pop\n      jump\t// out\n        /* \"#utility.yul\":2848:2923   */\n    tag_73:\n        /* \"#utility.yul\":2881:2887   */\n      0x00\n        /* \"#utility.yul\":2914:2916   */\n      0x40\n        /* \"#utility.yul\":2908:2917   */\n      mload\n        /* \"#utility.yul\":2898:2917   */\n      swap1\n      pop\n        /* \"#utility.yul\":2848:2923   */\n      swap1\n      jump\t// out\n        /* \"#utility.yul\":2929:3046   */\n    tag_74:\n        /* \"#utility.yul\":3038:3039   */\n      0x00\n        /* \"#utility.yul\":3035:3036   */\n      dup1\n        /* \"#utility.yul\":3028:3040   */\n      revert\n        /* \"#utility.yul\":3052:3169   */\n    tag_75:\n        /* \"#utility.yul\":3161:3162   */\n      0x00\n        /* \"#utility.yul\":3158:3159   */\n      dup1\n        /* \"#utility.yul\":3151:3163   */\n      revert\n        /* \"#utility.yul\":3175:3292   */\n    tag_76:\n        /* \"#utility.yul\":3284:3285   */\n      0x00\n        /* \"#utility.yul\":3281:3282   */\n      dup1\n        /* \"#utility.yul\":3274:3286   */\n      revert\n        /* \"#utility.yul\":3298:3415   */\n    tag_77:\n        /* \"#utility.yul\":3407:3408   */\n      0x00\n        /* \"#utility.yul\":3404:3405   */\n      dup1\n        /* \"#utility.yul\":3397:3409   */\n      revert\n        /* \"#utility.yul\":3421:3601   */\n    tag_78:\n        /* \"#utility.yul\":3469:3546   */\n      0x4e487b7100000000000000000000000000000000000000000000000000000000\n        /* \"#utility.yul\":3466:3467   */\n      0x00\n        /* \"#utility.yul\":3459:3547   */\n      mstore\n        /* \"#utility.yul\":3566:3570   */\n      0x41\n        /* \"#utility.yul\":3563:3564   */\n      0x04\n        /* \"#utility.yul\":3556:3571   */\n      mstore\n        /* \"#utility.yul\":3590:3594   */\n      0x24\n        /* \"#utility.yul\":3587:3588   */\n      0x00\n        /* \"#utility.yul\":3580:3595   */\n      revert\n        /* \"#utility.yul\":3607:3888   */\n    tag_79:\n        /* \"#utility.yul\":3690:3717   */\n      tag_129\n        /* \"#utility.yul\":3712:3716   */\n      dup3\n        /* \"#utility.yul\":3690:3717   */\n      tag_69\n      jump\t// in\n    tag_129:\n        /* \"#utility.yul\":3682:3688   */\n      dup2\n        /* \"#utility.yul\":3678:3718   */\n      add\n        /* \"#utility.yul\":3820:3826   */\n      dup2\n        /* \"#utility.yul\":3808:3818   */\n      dup2\n        /* \"#utility.yul\":3805:3827   */\n      lt\n        /* \"#utility.yul\":3784:3802   */\n      0xffffffffffffffff\n        /* \"#utility.yul\":3772:3782   */\n      dup3\n        /* \"#utility.yul\":3769:3803   */\n      gt\n        /* \"#utility.yul\":3766:3828   */\n      or\n        /* \"#utility.yul\":3763:3851   */\n      iszero\n      tag_130\n      jumpi\n        /* \"#utility.yul\":3831:3849   */\n      tag_131\n      tag_78\n      jump\t// in\n    tag_131:\n        /* \"#utility.yul\":3763:3851   */\n    tag_130:\n        /* \"#utility.yul\":3871:3881   */\n      dup1\n        /* \"#utility.yul\":3867:3869   */\n      0x40\n        /* \"#utility.yul\":3860:3882   */\n      mstore\n        /* \"#utility.yul\":3650:3888   */\n      pop\n        /* \"#utility.yul\":3607:3888   */\n      pop\n      pop\n      jump\t// out\n        /* \"#utility.yul\":3894:4023   */\n    tag_80:\n        /* \"#utility.yul\":3928:3934   */\n      0x00\n        /* \"#utility.yul\":3955:3975   */\n      tag_133\n      tag_73\n      jump\t// in\n    tag_133:\n        /* \"#utility.yul\":3945:3975   */\n      swap1\n      pop\n        /* \"#utility.yul\":3984:4017   */\n      tag_134\n        /* \"#utility.yul\":4012:4016   */\n      dup3\n        /* \"#utility.yul\":4004:4010   */\n      dup3\n        /* \"#utility.yul\":3984:4017   */\n      tag_79\n      jump\t// in\n    tag_134:\n        /* \"#utility.yul\":3894:4023   */\n      swap2\n      swap1\n      pop\n      jump\t// out\n        /* \"#utility.yul\":4029:4337   */\n    tag_81:\n        /* \"#utility.yul\":4091:4095   */\n      0x00\n        /* \"#utility.yul\":4181:4199   */\n      0xffffffffffffffff\n        /* \"#utility.yul\":4173:4179   */\n      dup3\n        /* \"#utility.yul\":4170:4200   */\n      gt\n        /* \"#utility.yul\":4167:4223   */\n      iszero\n      tag_136\n      jumpi\n        /* \"#utility.yul\":4203:4221   */\n      tag_137\n      tag_78\n      jump\t// in\n    tag_137:\n        /* \"#utility.yul\":4167:4223   */\n    tag_136:\n        /* \"#utility.yul\":4241:4270   */\n      tag_138\n        /* \"#utility.yul\":4263:4269   */\n      dup3\n        /* \"#utility.yul\":4241:4270   */\n      tag_69\n      jump\t// in\n    tag_138:\n        /* \"#utility.yul\":4233:4270   */\n      swap1\n      pop\n        /* \"#utility.yul\":4325:4329   */\n      0x20\n        /* \"#utility.yul\":4319:4323   */\n      dup2\n        /* \"#utility.yul\":4315:4330   */\n      add\n        /* \"#utility.yul\":4307:4330   */\n      swap1\n      pop\n        /* \"#utility.yul\":4029:4337   */\n      swap2\n      swap1\n      pop\n      jump\t// out\n        /* \"#utility.yul\":4343:4497   */\n    tag_82:\n        /* \"#utility.yul\":4427:4433   */\n      dup3\n        /* \"#utility.yul\":4422:4425   */\n      dup2\n        /* \"#utility.yul\":4417:4420   */\n      dup4\n        /* \"#utility.yul\":4404:4434   */\n      calldatacopy\n        /* \"#utility.yul\":4489:4490   */\n      0x00\n        /* \"#utility.yul\":4480:4486   */\n      dup4\n        /* \"#utility.yul\":4475:4478   */\n      dup4\n        /* \"#utility.yul\":4471:4487   */\n      add\n        /* \"#utility.yul\":4464:4491   */\n      mstore\n        /* \"#utility.yul\":4343:4497   */\n      pop\n      pop\n      pop\n      jump\t// out\n        /* \"#utility.yul\":4503:4915   */\n    tag_83:\n        /* \"#utility.yul\":4581:4586   */\n      0x00\n        /* \"#utility.yul\":4606:4672   */\n      tag_141\n        /* \"#utility.yul\":4622:4671   */\n      tag_142\n        /* \"#utility.yul\":4664:4670   */\n      dup5\n        /* \"#utility.yul\":4622:4671   */\n      tag_81\n      jump\t// in\n    tag_142:\n        /* \"#utility.yul\":4606:4672   */\n      tag_80\n      jump\t// in\n    tag_141:\n        /* \"#utility.yul\":4597:4672   */\n      swap1\n      pop\n        /* \"#utility.yul\":4695:4701   */\n      dup3\n        /* \"#utility.yul\":4688:4693   */\n      dup2\n        /* \"#utility.yul\":4681:4702   */\n      mstore\n        /* \"#utility.yul\":4733:4737   */\n      0x20\n        /* \"#utility.yul\":4726:4731   */\n      dup2\n        /* \"#utility.yul\":4722:4738   */\n      add\n        /* \"#utility.yul\":4771:4774   */\n      dup5\n        /* \"#utility.yul\":4762:4768   */\n      dup5\n        /* \"#utility.yul\":4757:4760   */\n      dup5\n        /* \"#utility.yul\":4753:4769   */\n      add\n        /* \"#utility.yul\":4750:4775   */\n      gt\n        /* \"#utility.yul\":4747:4859   */\n      iszero\n      tag_143\n      jumpi\n        /* \"#utility.yul\":4778:4857   */\n      tag_144\n      tag_77\n      jump\t// in\n    tag_144:\n        /* \"#utility.yul\":4747:4859   */\n    tag_143:\n        /* \"#utility.yul\":4868:4909   */\n      tag_145\n        /* \"#utility.yul\":4902:4908   */\n      dup5\n        /* \"#utility.yul\":4897:4900   */\n      dup3\n        /* \"#utility.yul\":4892:4895   */\n      dup6\n        /* \"#utility.yul\":4868:4909   */\n      tag_82\n      jump\t// in\n    tag_145:\n        /* \"#utility.yul\":4587:4915   */\n      pop\n        /* \"#utility.yul\":4503:4915   */\n      swap4\n      swap3\n      pop\n      pop\n      pop\n      jump\t// out\n        /* \"#utility.yul\":4935:5275   */\n    tag_84:\n        /* \"#utility.yul\":4991:4996   */\n      0x00\n        /* \"#utility.yul\":5040:5043   */\n      dup3\n        /* \"#utility.yul\":5033:5037   */\n      0x1f\n        /* \"#utility.yul\":5025:5031   */\n      dup4\n        /* \"#utility.yul\":5021:5038   */\n      add\n        /* \"#utility.yul\":5017:5044   */\n      slt\n        /* \"#utility.yul\":5007:5129   */\n      tag_147\n      jumpi\n        /* \"#utility.yul\":5048:5127   */\n      tag_148\n      tag_76\n      jump\t// in\n    tag_148:\n        /* \"#utility.yul\":5007:5129   */\n    tag_147:\n        /* \"#utility.yul\":5165:5171   */\n      dup2\n        /* \"#utility.yul\":5152:5172   */\n      calldataload\n        /* \"#utility.yul\":5190:5269   */\n      tag_149\n        /* \"#utility.yul\":5265:5268   */\n      dup5\n        /* \"#utility.yul\":5257:5263   */\n      dup3\n        /* \"#utility.yul\":5250:5254   */\n      0x20\n        /* \"#utility.yul\":5242:5248   */\n      dup7\n        /* \"#utility.yul\":5238:5255   */\n      add\n        /* \"#utility.yul\":5190:5269   */\n      tag_83\n      jump\t// in\n    tag_149:\n        /* \"#utility.yul\":5181:5269   */\n      swap2\n      pop\n        /* \"#utility.yul\":4997:5275   */\n      pop\n        /* \"#utility.yul\":4935:5275   */\n      swap3\n      swap2\n      pop\n      pop\n      jump\t// out\n        /* \"#utility.yul\":5281:5790   */\n    tag_31:\n        /* \"#utility.yul\":5350:5356   */\n      0x00\n        /* \"#utility.yul\":5399:5401   */\n      0x20\n        /* \"#utility.yul\":5387:5396   */\n      dup3\n        /* \"#utility.yul\":5378:5385   */\n      dup5\n        /* \"#utility.yul\":5374:5397   */\n      sub\n        /* \"#utility.yul\":5370:5402   */\n      slt\n        /* \"#utility.yul\":5367:5486   */\n      iszero\n      tag_151\n      jumpi\n        /* \"#utility.yul\":5405:5484   */\n      tag_152\n      tag_74\n      jump\t// in\n    tag_152:\n        /* \"#utility.yul\":5367:5486   */\n    tag_151:\n        /* \"#utility.yul\":5553:5554   */\n      0x00\n        /* \"#utility.yul\":5542:5551   */\n      dup3\n        /* \"#utility.yul\":5538:5555   */\n      add\n        /* \"#utility.yul\":5525:5556   */\n      calldataload\n        /* \"#utility.yul\":5583:5601   */\n      0xffffffffffffffff\n        /* \"#utility.yul\":5575:5581   */\n      dup2\n        /* \"#utility.yul\":5572:5602   */\n      gt\n        /* \"#utility.yul\":5569:5686   */\n      iszero\n      tag_153\n      jumpi\n        /* \"#utility.yul\":5605:5684   */\n      tag_154\n      tag_75\n      jump\t// in\n    tag_154:\n        /* \"#utility.yul\":5569:5686   */\n    tag_153:\n        /* \"#utility.yul\":5710:5773   */\n      tag_155\n        /* \"#utility.yul\":5765:5772   */\n      dup5\n        /* \"#utility.yul\":5756:5762   */\n      dup3\n        /* \"#utility.yul\":5745:5754   */\n      dup6\n        /* \"#utility.yul\":5741:5763   */\n      add\n        /* \"#utility.yul\":5710:5773   */\n      tag_84\n      jump\t// in\n    tag_155:\n        /* \"#utility.yul\":5700:5773   */\n      swap2\n      pop\n        /* \"#utility.yul\":5496:5783   */\n      pop\n        /* \"#utility.yul\":5281:5790   */\n      swap3\n      swap2\n      pop\n      pop\n      jump\t// out\n        /* \"#utility.yul\":5796:5918   */\n    tag_85:\n        /* \"#utility.yul\":5869:5893   */\n      tag_157\n        /* \"#utility.yul\":5887:5892   */\n      dup2\n        /* \"#utility.yul\":5869:5893   */\n      tag_64\n      jump\t// in\n    tag_157:\n        /* \"#utility.yul\":5862:5867   */\n      dup2\n        /* \"#utility.yul\":5859:5894   */\n      eq\n        /* \"#utility.yul\":5849:5912   */\n      tag_158\n      jumpi\n        /* \"#utility.yul\":5908:5909   */\n      0x00\n        /* \"#utility.yul\":5905:5906   */\n      dup1\n        /* \"#utility.yul\":5898:5910   */\n      revert\n        /* \"#utility.yul\":5849:5912   */\n    tag_158:\n        /* \"#utility.yul\":5796:5918   */\n      pop\n      jump\t// out\n        /* \"#utility.yul\":5924:6063   */\n    tag_86:\n        /* \"#utility.yul\":5970:5975   */\n      0x00\n        /* \"#utility.yul\":6008:6014   */\n      dup2\n        /* \"#utility.yul\":5995:6015   */\n      calldataload\n        /* \"#utility.yul\":5986:6015   */\n      swap1\n      pop\n        /* \"#utility.yul\":6024:6057   */\n      tag_160\n        /* \"#utility.yul\":6051:6056   */\n      dup2\n        /* \"#utility.yul\":6024:6057   */\n      tag_85\n      jump\t// in\n    tag_160:\n        /* \"#utility.yul\":5924:6063   */\n      swap3\n      swap2\n      pop\n      pop\n      jump\t// out\n        /* \"#utility.yul\":6069:6398   */\n    tag_35:\n        /* \"#utility.yul\":6128:6134   */\n      0x00\n        /* \"#utility.yul\":6177:6179   */\n      0x20\n        /* \"#utility.yul\":6165:6174   */\n      dup3\n        /* \"#utility.yul\":6156:6163   */\n      dup5\n        /* \"#utility.yul\":6152:6175   */\n      sub\n        /* \"#utility.yul\":6148:6180   */\n      slt\n        /* \"#utility.yul\":6145:6264   */\n      iszero\n      tag_162\n      jumpi\n        /* \"#utility.yul\":6183:6262   */\n      tag_163\n      tag_74\n      jump\t// in\n    tag_163:\n        /* \"#utility.yul\":6145:6264   */\n    tag_162:\n        /* \"#utility.yul\":6303:6304   */\n      0x00\n        /* \"#utility.yul\":6328:6381   */\n      tag_164\n        /* \"#utility.yul\":6373:6380   */\n      dup5\n        /* \"#utility.yul\":6364:6370   */\n      dup3\n        /* \"#utility.yul\":6353:6362   */\n      dup6\n        /* \"#utility.yul\":6349:6371   */\n      add\n        /* \"#utility.yul\":6328:6381   */\n      tag_86\n      jump\t// in\n    tag_164:\n        /* \"#utility.yul\":6318:6381   */\n      swap2\n      pop\n        /* \"#utility.yul\":6274:6391   */\n      pop\n        /* \"#utility.yul\":6069:6398   */\n      swap3\n      swap2\n      pop\n      pop\n      jump\t// out\n        /* \"#utility.yul\":6404:6584   */\n    tag_87:\n        /* \"#utility.yul\":6452:6529   */\n      0x4e487b7100000000000000000000000000000000000000000000000000000000\n        /* \"#utility.yul\":6449:6450   */\n      0x00\n        /* \"#utility.yul\":6442:6530   */\n      mstore\n        /* \"#utility.yul\":6549:6553   */\n      0x11\n        /* \"#utility.yul\":6546:6547   */\n      0x04\n        /* \"#utility.yul\":6539:6554   */\n      mstore\n        /* \"#utility.yul\":6573:6577   */\n      0x24\n        /* \"#utility.yul\":6570:6571   */\n      0x00\n        /* \"#utility.yul\":6563:6578   */\n      revert\n        /* \"#utility.yul\":6590:6757   */\n    tag_40:\n        /* \"#utility.yul\":6627:6630   */\n      0x00\n        /* \"#utility.yul\":6650:6672   */\n      tag_167\n        /* \"#utility.yul\":6666:6671   */\n      dup3\n        /* \"#utility.yul\":6650:6672   */\n      tag_71\n      jump\t// in\n    tag_167:\n        /* \"#utility.yul\":6641:6672   */\n      swap2\n      pop\n        /* \"#utility.yul\":6694:6698   */\n      0x00\n        /* \"#utility.yul\":6687:6692   */\n      dup3\n        /* \"#utility.yul\":6684:6699   */\n      sub\n        /* \"#utility.yul\":6681:6722   */\n      tag_168\n      jumpi\n        /* \"#utility.yul\":6702:6720   */\n      tag_169\n      tag_87\n      jump\t// in\n    tag_169:\n        /* \"#utility.yul\":6681:6722   */\n    tag_168:\n        /* \"#utility.yul\":6749:6750   */\n      0x01\n        /* \"#utility.yul\":6742:6747   */\n      dup3\n        /* \"#utility.yul\":6738:6751   */\n      sub\n        /* \"#utility.yul\":6731:6751   */\n      swap1\n      pop\n        /* \"#utility.yul\":6590:6757   */\n      swap2\n      swap1\n      pop\n      jump\t// out\n        /* \"#utility.yul\":6763:6943   */\n    tag_88:\n        /* \"#utility.yul\":6811:6888   */\n      0x4e487b7100000000000000000000000000000000000000000000000000000000\n        /* \"#utility.yul\":6808:6809   */\n      0x00\n        /* \"#utility.yul\":6801:6889   */\n      mstore\n        /* \"#utility.yul\":6908:6912   */\n      0x22\n        /* \"#utility.yul\":6905:6906   */\n      0x04\n        /* \"#utility.yul\":6898:6913   */\n      mstore\n        /* \"#utility.yul\":6932:6936   */\n      0x24\n        /* \"#utility.yul\":6929:6930   */\n      0x00\n        /* \"#utility.yul\":6922:6937   */\n      revert\n        /* \"#utility.yul\":6949:7269   */\n    tag_42:\n        /* \"#utility.yul\":6993:6999   */\n      0x00\n        /* \"#utility.yul\":7030:7031   */\n      0x02\n        /* \"#utility.yul\":7024:7028   */\n      dup3\n        /* \"#utility.yul\":7020:7032   */\n      div\n        /* \"#utility.yul\":7010:7032   */\n      swap1\n      pop\n        /* \"#utility.yul\":7077:7078   */\n      0x01\n        /* \"#utility.yul\":7071:7075   */\n      dup3\n        /* \"#utility.yul\":7067:7079   */\n      and\n        /* \"#utility.yul\":7098:7116   */\n      dup1\n        /* \"#utility.yul\":7088:7169   */\n      tag_172\n      jumpi\n        /* \"#utility.yul\":7154:7158   */\n      0x7f\n        /* \"#utility.yul\":7146:7152   */\n      dup3\n        /* \"#utility.yul\":7142:7159   */\n      and\n        /* \"#utility.yul\":7132:7159   */\n      swap2\n      pop\n        /* \"#utility.yul\":7088:7169   */\n    tag_172:\n        /* \"#utility.yul\":7216:7218   */\n      0x20\n        /* \"#utility.yul\":7208:7214   */\n      dup3\n        /* \"#utility.yul\":7205:7219   */\n      lt\n        /* \"#utility.yul\":7185:7203   */\n      dup2\n        /* \"#utility.yul\":7182:7220   */\n      sub\n        /* \"#utility.yul\":7179:7263   */\n      tag_173\n      jumpi\n        /* \"#utility.yul\":7235:7253   */\n      tag_174\n      tag_88\n      jump\t// in\n    tag_174:\n        /* \"#utility.yul\":7179:7263   */\n    tag_173:\n        /* \"#utility.yul\":7000:7269   */\n      pop\n        /* \"#utility.yul\":6949:7269   */\n      swap2\n      swap1\n      pop\n      jump\t// out\n\n    auxdata: 0xa26469706673582212209ad764310614b62474a0b816a2158386b4c3ef5ae088d8a844ba6da3df58907664736f6c634300080e0033\n}\n",
				"bytecode": {
					"linkReferences": {},
					"object": "60806040526040518060400160405280600f81526020017f48656c6c6f20576f7264204869696900000000000000000000000000000000008152506000908051906020019062000051929190620000e9565b506000600160146101000a81548160ff021916908360ff1602179055503480156200007b57600080fd5b5060405162000a8338038062000a838339818101604052810190620000a1919062000203565b80600160006101000a81548173ffffffffffffffffffffffffffffffffffffffff021916908373ffffffffffffffffffffffffffffffffffffffff1602179055505062000299565b828054620000f79062000264565b90600052602060002090601f0160209004810192826200011b576000855562000167565b82601f106200013657805160ff191683800117855562000167565b8280016001018555821562000167579182015b828111156200016657825182559160200191906001019062000149565b5b5090506200017691906200017a565b5090565b5b80821115620001955760008160009055506001016200017b565b5090565b600080fd5b600073ffffffffffffffffffffffffffffffffffffffff82169050919050565b6000620001cb826200019e565b9050919050565b620001dd81620001be565b8114620001e957600080fd5b50565b600081519050620001fd81620001d2565b92915050565b6000602082840312156200021c576200021b62000199565b5b60006200022c84828501620001ec565b91505092915050565b7f4e487b7100000000000000000000000000000000000000000000000000000000600052602260045260246000fd5b600060028204905060018216806200027d57607f821691505b60208210810362000293576200029262000235565b5b50919050565b6107da80620002a96000396000f3fe608060405234801561001057600080fd5b506004361061007d5760003560e01c8063390a00991161005b578063390a0099146100c85780638381f58a146100e6578063c3ccf40214610104578063e30081a0146101205761007d565b806312065fe01461008257806326b85ee1146100a05780632baeceb7146100be575b600080fd5b61008a61013c565b6040516100979190610398565b60405180910390f35b6100a861017d565b6040516100b591906103f4565b60405180910390f35b6100c66101a3565b005b6100d06101dd565b6040516100dd91906104a8565b60405180910390f35b6100ee61026b565b6040516100fb91906104e6565b60405180910390f35b61011e6004803603810190610119919061064a565b61027e565b005b61013a600480360381019061013591906106bf565b610298565b005b6000600160009054906101000a900473ffffffffffffffffffffffffffffffffffffffff1673ffffffffffffffffffffffffffffffffffffffff1631905090565b600160009054906101000a900473ffffffffffffffffffffffffffffffffffffffff1681565b6001601481819054906101000a900460ff16809291906101c29061071b565b91906101000a81548160ff021916908360ff16021790555050565b600080546101ea90610773565b80601f016020809104026020016040519081016040528092919081815260200182805461021690610773565b80156102635780601f1061023857610100808354040283529160200191610263565b820191906000526020600020905b81548152906001019060200180831161024657829003601f168201915b505050505081565b600160149054906101000a900460ff1681565b80600090805190602001906102949291906102dc565b5050565b80600160006101000a81548173ffffffffffffffffffffffffffffffffffffffff021916908373ffffffffffffffffffffffffffffffffffffffff16021790555050565b8280546102e890610773565b90600052602060002090601f01602090048101928261030a5760008555610351565b82601f1061032357805160ff1916838001178555610351565b82800160010185558215610351579182015b82811115610350578251825591602001919060010190610335565b5b50905061035e9190610362565b5090565b5b8082111561037b576000816000905550600101610363565b5090565b6000819050919050565b6103928161037f565b82525050565b60006020820190506103ad6000830184610389565b92915050565b600073ffffffffffffffffffffffffffffffffffffffff82169050919050565b60006103de826103b3565b9050919050565b6103ee816103d3565b82525050565b600060208201905061040960008301846103e5565b92915050565b600081519050919050565b600082825260208201905092915050565b60005b8381101561044957808201518184015260208101905061042e565b83811115610458576000848401525b50505050565b6000601f19601f8301169050919050565b600061047a8261040f565b610484818561041a565b935061049481856020860161042b565b61049d8161045e565b840191505092915050565b600060208201905081810360008301526104c2818461046f565b905092915050565b600060ff82169050919050565b6104e0816104ca565b82525050565b60006020820190506104fb60008301846104d7565b92915050565b6000604051905090565b600080fd5b600080fd5b600080fd5b600080fd5b7f4e487b7100000000000000000000000000000000000000000000000000000000600052604160045260246000fd5b6105578261045e565b810181811067ffffffffffffffff821117156105765761057561051f565b5b80604052505050565b6000610589610501565b9050610595828261054e565b919050565b600067ffffffffffffffff8211156105b5576105b461051f565b5b6105be8261045e565b9050602081019050919050565b82818337600083830152505050565b60006105ed6105e88461059a565b61057f565b9050828152602081018484840111156106095761060861051a565b5b6106148482856105cb565b509392505050565b600082601f83011261063157610630610515565b5b81356106418482602086016105da565b91505092915050565b6000602082840312156106605761065f61050b565b5b600082013567ffffffffffffffff81111561067e5761067d610510565b5b61068a8482850161061c565b91505092915050565b61069c816103d3565b81146106a757600080fd5b50565b6000813590506106b981610693565b92915050565b6000602082840312156106d5576106d461050b565b5b60006106e3848285016106aa565b91505092915050565b7f4e487b7100000000000000000000000000000000000000000000000000000000600052601160045260246000fd5b6000610726826104ca565b915060008203610739576107386106ec565b5b600182039050919050565b7f4e487b7100000000000000000000000000000000000000000000000000000000600052602260045260246000fd5b6000600282049050600182168061078b57607f821691505b60208210810361079e5761079d610744565b5b5091905056fea26469706673582212209ad764310614b62474a0b816a2158386b4c3ef5ae088d8a844ba6da3df58907664736f6c634300080e0033",
					"opcodes": "PUSH1 0x80 PUSH1 0x40 MSTORE PUSH1 0x40 MLOAD DUP1 PUSH1 0x40 ADD PUSH1 0x40 MSTORE DUP1 PUSH1 0xF DUP2 MSTORE PUSH1 0x20 ADD PUSH32 0x48656C6C6F20576F726420486969690000000000000000000000000000000000 DUP2 MSTORE POP PUSH1 0x0 SWAP1 DUP1 MLOAD SWAP1 PUSH1 0x20 ADD SWAP1 PUSH3 0x51 SWAP3 SWAP2 SWAP1 PUSH3 0xE9 JUMP JUMPDEST POP PUSH1 0x0 PUSH1 0x1 PUSH1 0x14 PUSH2 0x100 EXP DUP2 SLOAD DUP2 PUSH1 0xFF MUL NOT AND SWAP1 DUP4 PUSH1 0xFF AND MUL OR SWAP1 SSTORE POP CALLVALUE DUP1 ISZERO PUSH3 0x7B JUMPI PUSH1 0x0 DUP1 REVERT JUMPDEST POP PUSH1 0x40 MLOAD PUSH3 0xA83 CODESIZE SUB DUP1 PUSH3 0xA83 DUP4 CODECOPY DUP2 DUP2 ADD PUSH1 0x40 MSTORE DUP2 ADD SWAP1 PUSH3 0xA1 SWAP2 SWAP1 PUSH3 0x203 JUMP JUMPDEST DUP1 PUSH1 0x1 PUSH1 0x0 PUSH2 0x100 EXP DUP2 SLOAD DUP2 PUSH20 0xFFFFFFFFFFFFFFFFFFFFFFFFFFFFFFFFFFFFFFFF MUL NOT AND SWAP1 DUP4 PUSH20 0xFFFFFFFFFFFFFFFFFFFFFFFFFFFFFFFFFFFFFFFF AND MUL OR SWAP1 SSTORE POP POP PUSH3 0x299 JUMP JUMPDEST DUP3 DUP1 SLOAD PUSH3 0xF7 SWAP1 PUSH3 0x264 JUMP JUMPDEST SWAP1 PUSH1 0x0 MSTORE PUSH1 0x20 PUSH1 0x0 KECCAK256 SWAP1 PUSH1 0x1F ADD PUSH1 0x20 SWAP1 DIV DUP2 ADD SWAP3 DUP3 PUSH3 0x11B JUMPI PUSH1 0x0 DUP6 SSTORE PUSH3 0x167 JUMP JUMPDEST DUP3 PUSH1 0x1F LT PUSH3 0x136 JUMPI DUP1 MLOAD PUSH1 0xFF NOT AND DUP4 DUP1 ADD OR DUP6 SSTORE PUSH3 0x167 JUMP JUMPDEST DUP3 DUP1 ADD PUSH1 0x1 ADD DUP6 SSTORE DUP3 ISZERO PUSH3 0x167 JUMPI SWAP2 DUP3 ADD JUMPDEST DUP3 DUP2 GT ISZERO PUSH3 0x166 JUMPI DUP3 MLOAD DUP3 SSTORE SWAP2 PUSH1 0x20 ADD SWAP2 SWAP1 PUSH1 0x1 ADD SWAP1 PUSH3 0x149 JUMP JUMPDEST JUMPDEST POP SWAP1 POP PUSH3 0x176 SWAP2 SWAP1 PUSH3 0x17A JUMP JUMPDEST POP SWAP1 JUMP JUMPDEST JUMPDEST DUP1 DUP3 GT ISZERO PUSH3 0x195 JUMPI PUSH1 0x0 DUP2 PUSH1 0x0 SWAP1 SSTORE POP PUSH1 0x1 ADD PUSH3 0x17B JUMP JUMPDEST POP SWAP1 JUMP JUMPDEST PUSH1 0x0 DUP1 REVERT JUMPDEST PUSH1 0x0 PUSH20 0xFFFFFFFFFFFFFFFFFFFFFFFFFFFFFFFFFFFFFFFF DUP3 AND SWAP1 POP SWAP2 SWAP1 POP JUMP JUMPDEST PUSH1 0x0 PUSH3 0x1CB DUP3 PUSH3 0x19E JUMP JUMPDEST SWAP1 POP SWAP2 SWAP1 POP JUMP JUMPDEST PUSH3 0x1DD DUP2 PUSH3 0x1BE JUMP JUMPDEST DUP2 EQ PUSH3 0x1E9 JUMPI PUSH1 0x0 DUP1 REVERT JUMPDEST POP JUMP JUMPDEST PUSH1 0x0 DUP2 MLOAD SWAP1 POP PUSH3 0x1FD DUP2 PUSH3 0x1D2 JUMP JUMPDEST SWAP3 SWAP2 POP POP JUMP JUMPDEST PUSH1 0x0 PUSH1 0x20 DUP3 DUP5 SUB SLT ISZERO PUSH3 0x21C JUMPI PUSH3 0x21B PUSH3 0x199 JUMP JUMPDEST JUMPDEST PUSH1 0x0 PUSH3 0x22C DUP5 DUP3 DUP6 ADD PUSH3 0x1EC JUMP JUMPDEST SWAP2 POP POP SWAP3 SWAP2 POP POP JUMP JUMPDEST PUSH32 0x4E487B7100000000000000000000000000000000000000000000000000000000 PUSH1 0x0 MSTORE PUSH1 0x22 PUSH1 0x4 MSTORE PUSH1 0x24 PUSH1 0x0 REVERT JUMPDEST PUSH1 0x0 PUSH1 0x2 DUP3 DIV SWAP1 POP PUSH1 0x1 DUP3 AND DUP1 PUSH3 0x27D JUMPI PUSH1 0x7F DUP3 AND SWAP2 POP JUMPDEST PUSH1 0x20 DUP3 LT DUP2 SUB PUSH3 0x293 JUMPI PUSH3 0x292 PUSH3 0x235 JUMP JUMPDEST JUMPDEST POP SWAP2 SWAP1 POP JUMP JUMPDEST PUSH2 0x7DA DUP1 PUSH3 0x2A9 PUSH1 0x0 CODECOPY PUSH1 0x0 RETURN INVALID PUSH1 0x80 PUSH1 0x40 MSTORE CALLVALUE DUP1 ISZERO PUSH2 0x10 JUMPI PUSH1 0x0 DUP1 REVERT JUMPDEST POP PUSH1 0x4 CALLDATASIZE LT PUSH2 0x7D JUMPI PUSH1 0x0 CALLDATALOAD PUSH1 0xE0 SHR DUP1 PUSH4 0x390A0099 GT PUSH2 0x5B JUMPI DUP1 PUSH4 0x390A0099 EQ PUSH2 0xC8 JUMPI DUP1 PUSH4 0x8381F58A EQ PUSH2 0xE6 JUMPI DUP1 PUSH4 0xC3CCF402 EQ PUSH2 0x104 JUMPI DUP1 PUSH4 0xE30081A0 EQ PUSH2 0x120 JUMPI PUSH2 0x7D JUMP JUMPDEST DUP1 PUSH4 0x12065FE0 EQ PUSH2 0x82 JUMPI DUP1 PUSH4 0x26B85EE1 EQ PUSH2 0xA0 JUMPI DUP1 PUSH4 0x2BAECEB7 EQ PUSH2 0xBE JUMPI JUMPDEST PUSH1 0x0 DUP1 REVERT JUMPDEST PUSH2 0x8A PUSH2 0x13C JUMP JUMPDEST PUSH1 0x40 MLOAD PUSH2 0x97 SWAP2 SWAP1 PUSH2 0x398 JUMP JUMPDEST PUSH1 0x40 MLOAD DUP1 SWAP2 SUB SWAP1 RETURN JUMPDEST PUSH2 0xA8 PUSH2 0x17D JUMP JUMPDEST PUSH1 0x40 MLOAD PUSH2 0xB5 SWAP2 SWAP1 PUSH2 0x3F4 JUMP JUMPDEST PUSH1 0x40 MLOAD DUP1 SWAP2 SUB SWAP1 RETURN JUMPDEST PUSH2 0xC6 PUSH2 0x1A3 JUMP JUMPDEST STOP JUMPDEST PUSH2 0xD0 PUSH2 0x1DD JUMP JUMPDEST PUSH1 0x40 MLOAD PUSH2 0xDD SWAP2 SWAP1 PUSH2 0x4A8 JUMP JUMPDEST PUSH1 0x40 MLOAD DUP1 SWAP2 SUB SWAP1 RETURN JUMPDEST PUSH2 0xEE PUSH2 0x26B JUMP JUMPDEST PUSH1 0x40 MLOAD PUSH2 0xFB SWAP2 SWAP1 PUSH2 0x4E6 JUMP JUMPDEST PUSH1 0x40 MLOAD DUP1 SWAP2 SUB SWAP1 RETURN JUMPDEST PUSH2 0x11E PUSH1 0x4 DUP1 CALLDATASIZE SUB DUP2 ADD SWAP1 PUSH2 0x119 SWAP2 SWAP1 PUSH2 0x64A JUMP JUMPDEST PUSH2 0x27E JUMP JUMPDEST STOP JUMPDEST PUSH2 0x13A PUSH1 0x4 DUP1 CALLDATASIZE SUB DUP2 ADD SWAP1 PUSH2 0x135 SWAP2 SWAP1 PUSH2 0x6BF JUMP JUMPDEST PUSH2 0x298 JUMP JUMPDEST STOP JUMPDEST PUSH1 0x0 PUSH1 0x1 PUSH1 0x0 SWAP1 SLOAD SWAP1 PUSH2 0x100 EXP SWAP1 DIV PUSH20 0xFFFFFFFFFFFFFFFFFFFFFFFFFFFFFFFFFFFFFFFF AND PUSH20 0xFFFFFFFFFFFFFFFFFFFFFFFFFFFFFFFFFFFFFFFF AND BALANCE SWAP1 POP SWAP1 JUMP JUMPDEST PUSH1 0x1 PUSH1 0x0 SWAP1 SLOAD SWAP1 PUSH2 0x100 EXP SWAP1 DIV PUSH20 0xFFFFFFFFFFFFFFFFFFFFFFFFFFFFFFFFFFFFFFFF AND DUP2 JUMP JUMPDEST PUSH1 0x1 PUSH1 0x14 DUP2 DUP2 SWAP1 SLOAD SWAP1 PUSH2 0x100 EXP SWAP1 DIV PUSH1 0xFF AND DUP1 SWAP3 SWAP2 SWAP1 PUSH2 0x1C2 SWAP1 PUSH2 0x71B JUMP JUMPDEST SWAP2 SWAP1 PUSH2 0x100 EXP DUP2 SLOAD DUP2 PUSH1 0xFF MUL NOT AND SWAP1 DUP4 PUSH1 0xFF AND MUL OR SWAP1 SSTORE POP POP JUMP JUMPDEST PUSH1 0x0 DUP1 SLOAD PUSH2 0x1EA SWAP1 PUSH2 0x773 JUMP JUMPDEST DUP1 PUSH1 0x1F ADD PUSH1 0x20 DUP1 SWAP2 DIV MUL PUSH1 0x20 ADD PUSH1 0x40 MLOAD SWAP1 DUP2 ADD PUSH1 0x40 MSTORE DUP1 SWAP3 SWAP2 SWAP1 DUP2 DUP2 MSTORE PUSH1 0x20 ADD DUP3 DUP1 SLOAD PUSH2 0x216 SWAP1 PUSH2 0x773 JUMP JUMPDEST DUP1 ISZERO PUSH2 0x263 JUMPI DUP1 PUSH1 0x1F LT PUSH2 0x238 JUMPI PUSH2 0x100 DUP1 DUP4 SLOAD DIV MUL DUP4 MSTORE SWAP2 PUSH1 0x20 ADD SWAP2 PUSH2 0x263 JUMP JUMPDEST DUP3 ADD SWAP2 SWAP1 PUSH1 0x0 MSTORE PUSH1 0x20 PUSH1 0x0 KECCAK256 SWAP1 JUMPDEST DUP2 SLOAD DUP2 MSTORE SWAP1 PUSH1 0x1 ADD SWAP1 PUSH1 0x20 ADD DUP1 DUP4 GT PUSH2 0x246 JUMPI DUP3 SWAP1 SUB PUSH1 0x1F AND DUP3 ADD SWAP2 JUMPDEST POP POP POP POP POP DUP2 JUMP JUMPDEST PUSH1 0x1 PUSH1 0x14 SWAP1 SLOAD SWAP1 PUSH2 0x100 EXP SWAP1 DIV PUSH1 0xFF AND DUP2 JUMP JUMPDEST DUP1 PUSH1 0x0 SWAP1 DUP1 MLOAD SWAP1 PUSH1 0x20 ADD SWAP1 PUSH2 0x294 SWAP3 SWAP2 SWAP1 PUSH2 0x2DC JUMP JUMPDEST POP POP JUMP JUMPDEST DUP1 PUSH1 0x1 PUSH1 0x0 PUSH2 0x100 EXP DUP2 SLOAD DUP2 PUSH20 0xFFFFFFFFFFFFFFFFFFFFFFFFFFFFFFFFFFFFFFFF MUL NOT AND SWAP1 DUP4 PUSH20 0xFFFFFFFFFFFFFFFFFFFFFFFFFFFFFFFFFFFFFFFF AND MUL OR SWAP1 SSTORE POP POP JUMP JUMPDEST DUP3 DUP1 SLOAD PUSH2 0x2E8 SWAP1 PUSH2 0x773 JUMP JUMPDEST SWAP1 PUSH1 0x0 MSTORE PUSH1 0x20 PUSH1 0x0 KECCAK256 SWAP1 PUSH1 0x1F ADD PUSH1 0x20 SWAP1 DIV DUP2 ADD SWAP3 DUP3 PUSH2 0x30A JUMPI PUSH1 0x0 DUP6 SSTORE PUSH2 0x351 JUMP JUMPDEST DUP3 PUSH1 0x1F LT PUSH2 0x323 JUMPI DUP1 MLOAD PUSH1 0xFF NOT AND DUP4 DUP1 ADD OR DUP6 SSTORE PUSH2 0x351 JUMP JUMPDEST DUP3 DUP1 ADD PUSH1 0x1 ADD DUP6 SSTORE DUP3 ISZERO PUSH2 0x351 JUMPI SWAP2 DUP3 ADD JUMPDEST DUP3 DUP2 GT ISZERO PUSH2 0x350 JUMPI DUP3 MLOAD DUP3 SSTORE SWAP2 PUSH1 0x20 ADD SWAP2 SWAP1 PUSH1 0x1 ADD SWAP1 PUSH2 0x335 JUMP JUMPDEST JUMPDEST POP SWAP1 POP PUSH2 0x35E SWAP2 SWAP1 PUSH2 0x362 JUMP JUMPDEST POP SWAP1 JUMP JUMPDEST JUMPDEST DUP1 DUP3 GT ISZERO PUSH2 0x37B JUMPI PUSH1 0x0 DUP2 PUSH1 0x0 SWAP1 SSTORE POP PUSH1 0x1 ADD PUSH2 0x363 JUMP JUMPDEST POP SWAP1 JUMP JUMPDEST PUSH1 0x0 DUP2 SWAP1 POP SWAP2 SWAP1 POP JUMP JUMPDEST PUSH2 0x392 DUP2 PUSH2 0x37F JUMP JUMPDEST DUP3 MSTORE POP POP JUMP JUMPDEST PUSH1 0x0 PUSH1 0x20 DUP3 ADD SWAP1 POP PUSH2 0x3AD PUSH1 0x0 DUP4 ADD DUP5 PUSH2 0x389 JUMP JUMPDEST SWAP3 SWAP2 POP POP JUMP JUMPDEST PUSH1 0x0 PUSH20 0xFFFFFFFFFFFFFFFFFFFFFFFFFFFFFFFFFFFFFFFF DUP3 AND SWAP1 POP SWAP2 SWAP1 POP JUMP JUMPDEST PUSH1 0x0 PUSH2 0x3DE DUP3 PUSH2 0x3B3 JUMP JUMPDEST SWAP1 POP SWAP2 SWAP1 POP JUMP JUMPDEST PUSH2 0x3EE DUP2 PUSH2 0x3D3 JUMP JUMPDEST DUP3 MSTORE POP POP JUMP JUMPDEST PUSH1 0x0 PUSH1 0x20 DUP3 ADD SWAP1 POP PUSH2 0x409 PUSH1 0x0 DUP4 ADD DUP5 PUSH2 0x3E5 JUMP JUMPDEST SWAP3 SWAP2 POP POP JUMP JUMPDEST PUSH1 0x0 DUP2 MLOAD SWAP1 POP SWAP2 SWAP1 POP JUMP JUMPDEST PUSH1 0x0 DUP3 DUP3 MSTORE PUSH1 0x20 DUP3 ADD SWAP1 POP SWAP3 SWAP2 POP POP JUMP JUMPDEST PUSH1 0x0 JUMPDEST DUP4 DUP2 LT ISZERO PUSH2 0x449 JUMPI DUP1 DUP3 ADD MLOAD DUP2 DUP5 ADD MSTORE PUSH1 0x20 DUP2 ADD SWAP1 POP PUSH2 0x42E JUMP JUMPDEST DUP4 DUP2 GT ISZERO PUSH2 0x458 JUMPI PUSH1 0x0 DUP5 DUP5 ADD MSTORE JUMPDEST POP POP POP POP JUMP JUMPDEST PUSH1 0x0 PUSH1 0x1F NOT PUSH1 0x1F DUP4 ADD AND SWAP1 POP SWAP2 SWAP1 POP JUMP JUMPDEST PUSH1 0x0 PUSH2 0x47A DUP3 PUSH2 0x40F JUMP JUMPDEST PUSH2 0x484 DUP2 DUP6 PUSH2 0x41A JUMP JUMPDEST SWAP4 POP PUSH2 0x494 DUP2 DUP6 PUSH1 0x20 DUP7 ADD PUSH2 0x42B JUMP JUMPDEST PUSH2 0x49D DUP2 PUSH2 0x45E JUMP JUMPDEST DUP5 ADD SWAP2 POP POP SWAP3 SWAP2 POP POP JUMP JUMPDEST PUSH1 0x0 PUSH1 0x20 DUP3 ADD SWAP1 POP DUP2 DUP2 SUB PUSH1 0x0 DUP4 ADD MSTORE PUSH2 0x4C2 DUP2 DUP5 PUSH2 0x46F JUMP JUMPDEST SWAP1 POP SWAP3 SWAP2 POP POP JUMP JUMPDEST PUSH1 0x0 PUSH1 0xFF DUP3 AND SWAP1 POP SWAP2 SWAP1 POP JUMP JUMPDEST PUSH2 0x4E0 DUP2 PUSH2 0x4CA JUMP JUMPDEST DUP3 MSTORE POP POP JUMP JUMPDEST PUSH1 0x0 PUSH1 0x20 DUP3 ADD SWAP1 POP PUSH2 0x4FB PUSH1 0x0 DUP4 ADD DUP5 PUSH2 0x4D7 JUMP JUMPDEST SWAP3 SWAP2 POP POP JUMP JUMPDEST PUSH1 0x0 PUSH1 0x40 MLOAD SWAP1 POP SWAP1 JUMP JUMPDEST PUSH1 0x0 DUP1 REVERT JUMPDEST PUSH1 0x0 DUP1 REVERT JUMPDEST PUSH1 0x0 DUP1 REVERT JUMPDEST PUSH1 0x0 DUP1 REVERT JUMPDEST PUSH32 0x4E487B7100000000000000000000000000000000000000000000000000000000 PUSH1 0x0 MSTORE PUSH1 0x41 PUSH1 0x4 MSTORE PUSH1 0x24 PUSH1 0x0 REVERT JUMPDEST PUSH2 0x557 DUP3 PUSH2 0x45E JUMP JUMPDEST DUP2 ADD DUP2 DUP2 LT PUSH8 0xFFFFFFFFFFFFFFFF DUP3 GT OR ISZERO PUSH2 0x576 JUMPI PUSH2 0x575 PUSH2 0x51F JUMP JUMPDEST JUMPDEST DUP1 PUSH1 0x40 MSTORE POP POP POP JUMP JUMPDEST PUSH1 0x0 PUSH2 0x589 PUSH2 0x501 JUMP JUMPDEST SWAP1 POP PUSH2 0x595 DUP3 DUP3 PUSH2 0x54E JUMP JUMPDEST SWAP2 SWAP1 POP JUMP JUMPDEST PUSH1 0x0 PUSH8 0xFFFFFFFFFFFFFFFF DUP3 GT ISZERO PUSH2 0x5B5 JUMPI PUSH2 0x5B4 PUSH2 0x51F JUMP JUMPDEST JUMPDEST PUSH2 0x5BE DUP3 PUSH2 0x45E JUMP JUMPDEST SWAP1 POP PUSH1 0x20 DUP2 ADD SWAP1 POP SWAP2 SWAP1 POP JUMP JUMPDEST DUP3 DUP2 DUP4 CALLDATACOPY PUSH1 0x0 DUP4 DUP4 ADD MSTORE POP POP POP JUMP JUMPDEST PUSH1 0x0 PUSH2 0x5ED PUSH2 0x5E8 DUP5 PUSH2 0x59A JUMP JUMPDEST PUSH2 0x57F JUMP JUMPDEST SWAP1 POP DUP3 DUP2 MSTORE PUSH1 0x20 DUP2 ADD DUP5 DUP5 DUP5 ADD GT ISZERO PUSH2 0x609 JUMPI PUSH2 0x608 PUSH2 0x51A JUMP JUMPDEST JUMPDEST PUSH2 0x614 DUP5 DUP3 DUP6 PUSH2 0x5CB JUMP JUMPDEST POP SWAP4 SWAP3 POP POP POP JUMP JUMPDEST PUSH1 0x0 DUP3 PUSH1 0x1F DUP4 ADD SLT PUSH2 0x631 JUMPI PUSH2 0x630 PUSH2 0x515 JUMP JUMPDEST JUMPDEST DUP2 CALLDATALOAD PUSH2 0x641 DUP5 DUP3 PUSH1 0x20 DUP7 ADD PUSH2 0x5DA JUMP JUMPDEST SWAP2 POP POP SWAP3 SWAP2 POP POP JUMP JUMPDEST PUSH1 0x0 PUSH1 0x20 DUP3 DUP5 SUB SLT ISZERO PUSH2 0x660 JUMPI PUSH2 0x65F PUSH2 0x50B JUMP JUMPDEST JUMPDEST PUSH1 0x0 DUP3 ADD CALLDATALOAD PUSH8 0xFFFFFFFFFFFFFFFF DUP2 GT ISZERO PUSH2 0x67E JUMPI PUSH2 0x67D PUSH2 0x510 JUMP JUMPDEST JUMPDEST PUSH2 0x68A DUP5 DUP3 DUP6 ADD PUSH2 0x61C JUMP JUMPDEST SWAP2 POP POP SWAP3 SWAP2 POP POP JUMP JUMPDEST PUSH2 0x69C DUP2 PUSH2 0x3D3 JUMP JUMPDEST DUP2 EQ PUSH2 0x6A7 JUMPI PUSH1 0x0 DUP1 REVERT JUMPDEST POP JUMP JUMPDEST PUSH1 0x0 DUP2 CALLDATALOAD SWAP1 POP PUSH2 0x6B9 DUP2 PUSH2 0x693 JUMP JUMPDEST SWAP3 SWAP2 POP POP JUMP JUMPDEST PUSH1 0x0 PUSH1 0x20 DUP3 DUP5 SUB SLT ISZERO PUSH2 0x6D5 JUMPI PUSH2 0x6D4 PUSH2 0x50B JUMP JUMPDEST JUMPDEST PUSH1 0x0 PUSH2 0x6E3 DUP5 DUP3 DUP6 ADD PUSH2 0x6AA JUMP JUMPDEST SWAP2 POP POP SWAP3 SWAP2 POP POP JUMP JUMPDEST PUSH32 0x4E487B7100000000000000000000000000000000000000000000000000000000 PUSH1 0x0 MSTORE PUSH1 0x11 PUSH1 0x4 MSTORE PUSH1 0x24 PUSH1 0x0 REVERT JUMPDEST PUSH1 0x0 PUSH2 0x726 DUP3 PUSH2 0x4CA JUMP JUMPDEST SWAP2 POP PUSH1 0x0 DUP3 SUB PUSH2 0x739 JUMPI PUSH2 0x738 PUSH2 0x6EC JUMP JUMPDEST JUMPDEST PUSH1 0x1 DUP3 SUB SWAP1 POP SWAP2 SWAP1 POP JUMP JUMPDEST PUSH32 0x4E487B7100000000000000000000000000000000000000000000000000000000 PUSH1 0x0 MSTORE PUSH1 0x22 PUSH1 0x4 MSTORE PUSH1 0x24 PUSH1 0x0 REVERT JUMPDEST PUSH1 0x0 PUSH1 0x2 DUP3 DIV SWAP1 POP PUSH1 0x1 DUP3 AND DUP1 PUSH2 0x78B JUMPI PUSH1 0x7F DUP3 AND SWAP2 POP JUMPDEST PUSH1 0x20 DUP3 LT DUP2 SUB PUSH2 0x79E JUMPI PUSH2 0x79D PUSH2 0x744 JUMP JUMPDEST JUMPDEST POP SWAP2 SWAP1 POP JUMP INVALID LOG2 PUSH5 0x6970667358 0x22 SLT KECCAK256 SWAP11 0xD7 PUSH5 0x310614B624 PUSH21 0xA0B816A2158386B4C3EF5AE088D8A844BA6DA3DF58 SWAP1 PUSH23 0x64736F6C634300080E0033000000000000000000000000 "
				},
				"gasEstimates": {
					"creation": {
						"codeDepositCost": "402000",
						"executionCost": "infinite",
						"totalCost": "infinite"
					},
					"external": {
						"decrement()": "26844",
						"getBalance()": "5080",
						"myAddress()": "2537",
						"number()": "2543",
						"ourString()": "infinite",
						"setAddress(address)": "24788",
						"updateString(string)": "infinite"
					}
				},
				"methodIdentifiers": {
					"decrement()": "2baeceb7",
					"getBalance()": "12065fe0",
					"myAddress()": "26b85ee1",
					"number()": "8381f58a",
					"ourString()": "390a0099",
					"setAddress(address)": "e30081a0",
					"updateString(string)": "c3ccf402"
				}
			},
			"storageLayout": {
				"storage": [
					{
						"astId": 4,
						"contract": "contracts/MyContract.sol:MyContract",
						"label": "ourString",
						"offset": 0,
						"slot": "0",
						"type": "t_string_storage"
					},
					{
						"astId": 16,
						"contract": "contracts/MyContract.sol:MyContract",
						"label": "myAddress",
						"offset": 0,
						"slot": "1",
						"type": "t_address"
					},
					{
						"astId": 48,
						"contract": "contracts/MyContract.sol:MyContract",
						"label": "number",
						"offset": 20,
						"slot": "1",
						"type": "t_uint8"
					}
				],
				"types": {
					"t_address": {
						"encoding": "inplace",
						"label": "address",
						"numberOfBytes": "20"
					},
					"t_string_storage": {
						"encoding": "bytes",
						"label": "string",
						"numberOfBytes": "32"
					},
					"t_uint8": {
						"encoding": "inplace",
						"label": "uint8",
						"numberOfBytes": "1"
					}
				}
			},
			"userdoc": {
				"kind": "user",
				"methods": {},
				"version": 1
			}
		}
	}
}